:020000040000FA
:0400000003EF00F01A
:020004000000FA
:0A0006008AEC00F022EC00F052EC4E
:1000100000F0E1EC01F005B010EF00F01BEF00F094
:10002000E1EC01F0C3EC01F0010E066210EF00F00C
:100030001AEF00F0056A066A6EEC01F032EC00F08F
:1000400007EF00F0820E026EA00E016E9F0E006E92
:10005000002E28EF00F0012E26EF00F0022E24EFF4
:1000600000F01200340E026EA00E016E9F0E006EA4
:10007000002E38EF00F0012E36EF00F0022E34EFA4
:1000800000F01200610E026EA00E016E9F0E006E57
:10009000002E48EF00F0012E46EF00F0022E44EF54
:1000A00000F01200000E036258EF00F069EF00F05C
:1000B000030E03625EEF00F069EF00F0060E0362CC
:1000C00064EF00F069EF00F0090E0362120069EFBF
:1000D00000F0010E056E12000F0E896E8A6E8B6E97
:1000E0008C6E1200896A8A6A8B6A8C6A1200200EF2
:1000F000936E100E926E000E946E956E120077EC59
:1001000000F06CEC00F022EC00F022EC00F072EC5D
:1001100000F01200036A046A056A066A076A0F0E95
:10012000C16E7FEC00F098EC00F0010E046E12003E
:10013000010E896E8A6E036E1200010E0462A3EF37
:1001400000F0A9EF00F0010E896E8B6A000E036EBD
:100150001200010E8B6E896A020E036E1200010EF0
:100160000462B5EF00F0BBEF00F0010E8A6E8C6AFE
:10017000010E036E1200010E8C6E8A6A030E036E6E
:100180001200010E0462C7EF00F0CDEF00F0010E87
:100190008B6E8C6E020E036E1200010E8B6A030EC4
:1001A0008C6E040E036E1200010E0462DAEF00F092
:1001B000DFEF00F0030E8C6E030E036E1200060ECE
:1001C0008C6E050E036E1200010E0462EAEF00F061
:1001D000EFEF00F0060E8C6E040E036E12000C0E94
:1001E0008C6E060E036E1200010E0462FAEF00F030
:1001F00000EF01F00C0E8C6E8B6A050E036E120080
:10020000080E8C6E8B6E070E036E1200010E0462D8
:100210000CEF01F012EF01F0080E8C6E8A6A060EE8
:10022000036E1200080E8C6A8A6E080E036E1200AE
:10023000010E04621EEF01F024EF01F0080E8B6E38
:10024000896A070E036E1200080E8B6A896E090E0A
:10025000036E1200010E046230EF01F036EF01F080
:10026000080E8A6E896E080E036E12000C0E8A6AE2
:10027000896E0A0E036E1200010E046242EF01F055
:1002800047EF01F00C0E896E090E036E1200060E88
:10029000896E0B0E036E1200010E046252EF01F024
:1002A00057EF01F0060E896E0A0E036E1200030E60
:1002B000896E000E036E1200010E046262EF01F0FF
:1002C00068EF01F0030E896E8A6A0B0E036E12004E
:1002D000010E896E8A6E010E036E1200010E03621A
:1002E00075EF01F09DEC00F01200020E03627CEF4E
:1002F00001F0AFEC00F01200030E036283EF01F097
:10030000C1EC00F01200040E03628AEF01F0D4EC9D
:1003100000F01200050E036291EF01F0E4EC00F032
:100320001200060E036298EF01F0F4EC00F01200E8
:10033000070E03629FEF01F006EC01F01200080EB9
:100340000362A6EF01F018EC01F01200090E03623F
:10035000ADEF01F02AEC01F012000A0E0362B4EFD7
:1003600001F03CEC01F012000B0E0362BBEF01F058
:100370004CEC01F01200000E0362C2EF01F05CECE5
:1003800001F01200120081AA120081BAC5EF01F03B
:10039000056A010E066E1200010E0462D4EF01F030
:1003A000D2EF01F0046A1200010E046E1200010E79
:1003B0000462DDEF01F0DFEF01F0032A1200030613
:1003C000120080A8E6EF01F0EBEF01F0010E0762EA
:1003D0001200EEEF01F0010E076E1200D7EC01F0F3
:0C03E000CCEC01F0010E066E076A120062
:020000040030CA
:0100010006F8
:0100020019E4
:010003001EDE
:01000400F308
:010005008377
:010006008178
:01000800FFF8
:01000900C036
:01000A00FFF6
:01000B00E014
:01000C00FFF4
:01000D0040B2
:00000001FF
